{
  "_format": "hh-sol-artifact-1",
  "contractName": "SepoliaDonation",
  "sourceName": "contracts/contract.sol",
  "abi": [
    {
      "inputs": [],
      "stateMutability": "nonpayable",
      "type": "constructor"
    },
    {
      "anonymous": false,
      "inputs": [
        {
          "indexed": true,
          "internalType": "address",
          "name": "sender",
          "type": "address"
        },
        {
          "indexed": true,
          "internalType": "address",
          "name": "recipient",
          "type": "address"
        },
        {
          "indexed": false,
          "internalType": "uint256",
          "name": "amount",
          "type": "uint256"
        }
      ],
      "name": "DonationSent",
      "type": "event"
    },
    {
      "anonymous": false,
      "inputs": [
        {
          "indexed": true,
          "internalType": "address",
          "name": "sender",
          "type": "address"
        },
        {
          "indexed": false,
          "internalType": "string",
          "name": "_cardsId",
          "type": "string"
        },
        {
          "indexed": false,
          "internalType": "string",
          "name": "_title",
          "type": "string"
        },
        {
          "indexed": false,
          "internalType": "string",
          "name": "_description",
          "type": "string"
        },
        {
          "indexed": false,
          "internalType": "uint256",
          "name": "_fundingGoal",
          "type": "uint256"
        }
      ],
      "name": "LogCreateProjectInputs",
      "type": "event"
    },
    {
      "anonymous": false,
      "inputs": [
        {
          "indexed": false,
          "internalType": "string",
          "name": "projectId",
          "type": "string"
        },
        {
          "indexed": false,
          "internalType": "address",
          "name": "creator",
          "type": "address"
        },
        {
          "indexed": false,
          "internalType": "string",
          "name": "title",
          "type": "string"
        },
        {
          "indexed": false,
          "internalType": "uint256",
          "name": "fundingGoal",
          "type": "uint256"
        }
      ],
      "name": "LogCreatedProject",
      "type": "event"
    },
    {
      "anonymous": false,
      "inputs": [
        {
          "indexed": false,
          "internalType": "string",
          "name": "projectId",
          "type": "string"
        }
      ],
      "name": "ProjectCanceled",
      "type": "event"
    },
    {
      "anonymous": false,
      "inputs": [
        {
          "indexed": false,
          "internalType": "string",
          "name": "projectId",
          "type": "string"
        },
        {
          "indexed": true,
          "internalType": "address",
          "name": "creator",
          "type": "address"
        },
        {
          "indexed": false,
          "internalType": "string",
          "name": "title",
          "type": "string"
        },
        {
          "indexed": false,
          "internalType": "uint256",
          "name": "fundingGoal",
          "type": "uint256"
        }
      ],
      "name": "ProjectCreated",
      "type": "event"
    },
    {
      "anonymous": false,
      "inputs": [
        {
          "indexed": false,
          "internalType": "string",
          "name": "projectId",
          "type": "string"
        },
        {
          "indexed": true,
          "internalType": "address",
          "name": "backer",
          "type": "address"
        },
        {
          "indexed": false,
          "internalType": "uint256",
          "name": "amount",
          "type": "uint256"
        }
      ],
      "name": "ProjectFunded",
      "type": "event"
    },
    {
      "anonymous": false,
      "inputs": [
        {
          "indexed": false,
          "internalType": "string",
          "name": "projectId",
          "type": "string"
        }
      ],
      "name": "ProjectSuccessful",
      "type": "event"
    },
    {
      "anonymous": false,
      "inputs": [
        {
          "indexed": true,
          "internalType": "address",
          "name": "sender",
          "type": "address"
        },
        {
          "indexed": false,
          "internalType": "string",
          "name": "reason",
          "type": "string"
        }
      ],
      "name": "TransactionFailed",
      "type": "event"
    },
    {
      "inputs": [
        {
          "internalType": "string",
          "name": "_projectId",
          "type": "string"
        }
      ],
      "name": "cancelProject",
      "outputs": [],
      "stateMutability": "nonpayable",
      "type": "function"
    },
    {
      "inputs": [
        {
          "internalType": "string",
          "name": "_cardsId",
          "type": "string"
        },
        {
          "internalType": "string",
          "name": "_title",
          "type": "string"
        },
        {
          "internalType": "string",
          "name": "_description",
          "type": "string"
        },
        {
          "internalType": "uint256",
          "name": "_fundingGoal",
          "type": "uint256"
        }
      ],
      "name": "createProject",
      "outputs": [],
      "stateMutability": "nonpayable",
      "type": "function"
    },
    {
      "inputs": [],
      "name": "owner",
      "outputs": [
        {
          "internalType": "address",
          "name": "",
          "type": "address"
        }
      ],
      "stateMutability": "view",
      "type": "function"
    },
    {
      "inputs": [
        {
          "internalType": "string",
          "name": "",
          "type": "string"
        }
      ],
      "name": "projects",
      "outputs": [
        {
          "internalType": "address",
          "name": "creator",
          "type": "address"
        },
        {
          "internalType": "string",
          "name": "title",
          "type": "string"
        },
        {
          "internalType": "string",
          "name": "description",
          "type": "string"
        },
        {
          "internalType": "uint256",
          "name": "fundingGoal",
          "type": "uint256"
        },
        {
          "internalType": "uint256",
          "name": "totalFunding",
          "type": "uint256"
        },
        {
          "internalType": "bool",
          "name": "funded",
          "type": "bool"
        }
      ],
      "stateMutability": "view",
      "type": "function"
    },
    {
      "inputs": [
        {
          "internalType": "address payable",
          "name": "_recipient",
          "type": "address"
        },
        {
          "internalType": "string",
          "name": "_projectId",
          "type": "string"
        }
      ],
      "name": "sendSepoliaETH",
      "outputs": [],
      "stateMutability": "payable",
      "type": "function"
    },
    {
      "inputs": [],
      "name": "totalProjects",
      "outputs": [
        {
          "internalType": "uint256",
          "name": "",
          "type": "uint256"
        }
      ],
      "stateMutability": "view",
      "type": "function"
    }
  ],
  "bytecode": "0x608060405234801561001057600080fd5b50336000806101000a81548173ffffffffffffffffffffffffffffffffffffffff021916908373ffffffffffffffffffffffffffffffffffffffff160217905550611436806100606000396000f3fe6080604052600436106100555760003560e01c80631ca738961461005a5780632cb9895c146100835780638da5cb5b1461009f57806391c9b268146100ca5780639c361e4e1461010c578063a394c3a614610137575b600080fd5b34801561006657600080fd5b50610081600480360381019061007c9190610bd5565b610160565b005b61009d60048036038101906100989190610b40565b61035d565b005b3480156100ab57600080fd5b506100b4610623565b6040516100c19190610efa565b60405180910390f35b3480156100d657600080fd5b506100f160048036038101906100ec9190610b94565b610647565b60405161010396959493929190610f15565b60405180910390f35b34801561011857600080fd5b506101216107d6565b60405161012e9190611143565b60405180910390f35b34801561014357600080fd5b5061015e60048036038101906101599190610b94565b6107dc565b005b600081116101a3576040517f08c379a000000000000000000000000000000000000000000000000000000000815260040161019a90611103565b60405180910390fd5b60008490503373ffffffffffffffffffffffffffffffffffffffff167f03e22ce0032f1b1b1bc24bafa4a8b2d4b9b0bb85d909aef40266e197c86bb715868686866040516101f49493929190610ff9565b60405180910390a26040518060c001604052803373ffffffffffffffffffffffffffffffffffffffff16815260200185815260200184815260200183815260200160008152602001600015158152506001826040516102539190610ee3565b908152602001604051809103902060008201518160000160006101000a81548173ffffffffffffffffffffffffffffffffffffffff021916908373ffffffffffffffffffffffffffffffffffffffff16021790555060208201518160010190805190602001906102c49291906109cb565b5060408201518160020190805190602001906102e19291906109cb565b50606082015181600301556080820151816004015560a08201518160050160006101000a81548160ff0219169083151502179055509050507f4e8106e535498ab64ede68ae302d5019fab7da86edd05a67a64208d48c3f2dfd8133868560405161034e9493929190610fa6565b60405180910390a15050505050565b600060018260405161036f9190610ee3565b908152602001604051809103902090508060050160009054906101000a900460ff16156103d1576040517f08c379a00000000000000000000000000000000000000000000000000000000081526004016103c890611123565b60405180910390fd5b60003411610414576040517f08c379a000000000000000000000000000000000000000000000000000000000815260040161040b90611083565b60405180910390fd5b600034116104a3573373ffffffffffffffffffffffffffffffffffffffff167ff4507cb8aaaaa1f7d682cb3b97fd1c843dfb0694c3aa3b2a10d18f8076dce514604051610460906110a3565b60405180910390a26040517f08c379a000000000000000000000000000000000000000000000000000000000815260040161049a906110a3565b60405180910390fd5b348160040160008282546104b791906111e6565b9250508190555080600301548160040154106105225760018160050160006101000a81548160ff0219169083151502179055507fdd2a0c7eac609ec06af3b181eb246c7517fe1f5afefac96fefba6633c0ff4b43826040516105199190610f84565b60405180910390a15b8273ffffffffffffffffffffffffffffffffffffffff166108fc349081150290604051600060405180830381858888f19350505050158015610568573d6000803e3d6000fd5b503373ffffffffffffffffffffffffffffffffffffffff167fcba96cf29867a5191902b1ef455100fd67f056915fe78563d2e22be40ae7f9ca83346040516105b1929190611053565b60405180910390a28273ffffffffffffffffffffffffffffffffffffffff163373ffffffffffffffffffffffffffffffffffffffff167fc5835c42104f59a9d40c52f62332be8a5680438e166679cee2d78a14e66831b8346040516106169190611143565b60405180910390a3505050565b60008054906101000a900473ffffffffffffffffffffffffffffffffffffffff1681565b6001818051602081018201805184825260208301602085012081835280955050505050506000915090508060000160009054906101000a900473ffffffffffffffffffffffffffffffffffffffff16908060010180546106a690611302565b80601f01602080910402602001604051908101604052809291908181526020018280546106d290611302565b801561071f5780601f106106f45761010080835404028352916020019161071f565b820191906000526020600020905b81548152906001019060200180831161070257829003601f168201915b50505050509080600201805461073490611302565b80601f016020809104026020016040519081016040528092919081815260200182805461076090611302565b80156107ad5780601f10610782576101008083540402835291602001916107ad565b820191906000526020600020905b81548152906001019060200180831161079057829003601f168201915b5050505050908060030154908060040154908060050160009054906101000a900460ff16905086565b60025481565b60006001826040516107ee9190610ee3565b908152602001604051809103902090508060000160009054906101000a900473ffffffffffffffffffffffffffffffffffffffff1673ffffffffffffffffffffffffffffffffffffffff163373ffffffffffffffffffffffffffffffffffffffff1614610890576040517f08c379a0000000000000000000000000000000000000000000000000000000008152600401610887906110c3565b60405180910390fd5b8060050160009054906101000a900460ff16156108e2576040517f08c379a00000000000000000000000000000000000000000000000000000000081526004016108d9906110e3565b60405180910390fd5b600081600401819055506001826040516108fc9190610ee3565b9081526020016040518091039020600080820160006101000a81549073ffffffffffffffffffffffffffffffffffffffff02191690556001820160006109429190610a51565b6002820160006109529190610a51565b600382016000905560048201600090556005820160006101000a81549060ff021916905550506002600081548092919061098b906112d8565b91905055507fef7348c8c4387878a8d92dacf856fb813ff48fd98d31fce0e23d2f3a154ebe15826040516109bf9190610f84565b60405180910390a15050565b8280546109d790611302565b90600052602060002090601f0160209004810192826109f95760008555610a40565b82601f10610a1257805160ff1916838001178555610a40565b82800160010185558215610a40579182015b82811115610a3f578251825591602001919060010190610a24565b5b509050610a4d9190610a91565b5090565b508054610a5d90611302565b6000825580601f10610a6f5750610a8e565b601f016020900490600052602060002090810190610a8d9190610a91565b5b50565b5b80821115610aaa576000816000905550600101610a92565b5090565b6000610ac1610abc8461118f565b61115e565b905082815260208101848484011115610ad957600080fd5b610ae4848285611296565b509392505050565b600081359050610afb816113d2565b92915050565b600082601f830112610b1257600080fd5b8135610b22848260208601610aae565b91505092915050565b600081359050610b3a816113e9565b92915050565b60008060408385031215610b5357600080fd5b6000610b6185828601610aec565b925050602083013567ffffffffffffffff811115610b7e57600080fd5b610b8a85828601610b01565b9150509250929050565b600060208284031215610ba657600080fd5b600082013567ffffffffffffffff811115610bc057600080fd5b610bcc84828501610b01565b91505092915050565b60008060008060808587031215610beb57600080fd5b600085013567ffffffffffffffff811115610c0557600080fd5b610c1187828801610b01565b945050602085013567ffffffffffffffff811115610c2e57600080fd5b610c3a87828801610b01565b935050604085013567ffffffffffffffff811115610c5757600080fd5b610c6387828801610b01565b9250506060610c7487828801610b2b565b91505092959194509250565b610c898161123c565b82525050565b610c9881611260565b82525050565b6000610ca9826111bf565b610cb381856111ca565b9350610cc38185602086016112a5565b610ccc816113c1565b840191505092915050565b6000610ce2826111bf565b610cec81856111db565b9350610cfc8185602086016112a5565b80840191505092915050565b6000610d15601d836111ca565b91507f416d6f756e74206d7573742062652067726561746572207468616e20300000006000830152602082019050919050565b6000610d55601e836111ca565b91507f596f75206d7573742073656e6420736f6d65205365706f6c69612045544800006000830152602082019050919050565b6000610d95602f836111ca565b91507f4f6e6c79207468652070726f6a6563742063726561746f722063616e2063616e60008301527f63656c207468652070726f6a65637400000000000000000000000000000000006020830152604082019050919050565b6000610dfb601e836111ca565b91507f43616e6e6f742063616e63656c20612066756e6465642070726f6a65637400006000830152602082019050919050565b6000610e3b6023836111ca565b91507f46756e64696e6720676f616c206d75737420626520677265617465722074686160008301527f6e203000000000000000000000000000000000000000000000000000000000006020830152604082019050919050565b6000610ea1601f836111ca565b91507f50726f6a6563742068617320616c7265616479206265656e2066756e646564006000830152602082019050919050565b610edd8161128c565b82525050565b6000610eef8284610cd7565b915081905092915050565b6000602082019050610f0f6000830184610c80565b92915050565b600060c082019050610f2a6000830189610c80565b8181036020830152610f3c8188610c9e565b90508181036040830152610f508187610c9e565b9050610f5f6060830186610ed4565b610f6c6080830185610ed4565b610f7960a0830184610c8f565b979650505050505050565b60006020820190508181036000830152610f9e8184610c9e565b905092915050565b60006080820190508181036000830152610fc08187610c9e565b9050610fcf6020830186610c80565b8181036040830152610fe18185610c9e565b9050610ff06060830184610ed4565b95945050505050565b600060808201905081810360008301526110138187610c9e565b905081810360208301526110278186610c9e565b9050818103604083015261103b8185610c9e565b905061104a6060830184610ed4565b95945050505050565b6000604082019050818103600083015261106d8185610c9e565b905061107c6020830184610ed4565b9392505050565b6000602082019050818103600083015261109c81610d08565b9050919050565b600060208201905081810360008301526110bc81610d48565b9050919050565b600060208201905081810360008301526110dc81610d88565b9050919050565b600060208201905081810360008301526110fc81610dee565b9050919050565b6000602082019050818103600083015261111c81610e2e565b9050919050565b6000602082019050818103600083015261113c81610e94565b9050919050565b60006020820190506111586000830184610ed4565b92915050565b6000604051905081810181811067ffffffffffffffff8211171561118557611184611392565b5b8060405250919050565b600067ffffffffffffffff8211156111aa576111a9611392565b5b601f19601f8301169050602081019050919050565b600081519050919050565b600082825260208201905092915050565b600081905092915050565b60006111f18261128c565b91506111fc8361128c565b9250827fffffffffffffffffffffffffffffffffffffffffffffffffffffffffffffffff0382111561123157611230611334565b5b828201905092915050565b60006112478261126c565b9050919050565b60006112598261126c565b9050919050565b60008115159050919050565b600073ffffffffffffffffffffffffffffffffffffffff82169050919050565b6000819050919050565b82818337600083830152505050565b60005b838110156112c35780820151818401526020810190506112a8565b838111156112d2576000848401525b50505050565b60006112e38261128c565b915060008214156112f7576112f6611334565b5b600182039050919050565b6000600282049050600182168061131a57607f821691505b6020821081141561132e5761132d611363565b5b50919050565b7f4e487b7100000000000000000000000000000000000000000000000000000000600052601160045260246000fd5b7f4e487b7100000000000000000000000000000000000000000000000000000000600052602260045260246000fd5b7f4e487b7100000000000000000000000000000000000000000000000000000000600052604160045260246000fd5b6000601f19601f8301169050919050565b6113db8161124e565b81146113e657600080fd5b50565b6113f28161128c565b81146113fd57600080fd5b5056fea2646970667358221220dcdbeaaf93b40c86da8a6bbb1f3d6195e34e78c4172ceae475e6c44af77e81e564736f6c63430008000033",
  "linkReferences": {},
  "deployedLinkReferences": {}
}