{
  "_format": "hh-sol-artifact-1",
  "contractName": "SepoliaDonation",
  "sourceName": "contracts/contract.sol",
  "abi": [
    {
      "anonymous": false,
      "inputs": [
        {
          "indexed": true,
          "internalType": "address",
          "name": "sender",
          "type": "address"
        },
        {
          "indexed": true,
          "internalType": "address",
          "name": "recipient",
          "type": "address"
        },
        {
          "indexed": false,
          "internalType": "uint256",
          "name": "amount",
          "type": "uint256"
        }
      ],
      "name": "DonationSent",
      "type": "event"
    },
    {
      "inputs": [
        {
          "internalType": "address payable",
          "name": "_recipient",
          "type": "address"
        }
      ],
      "name": "sendSepoliaETH",
      "outputs": [],
      "stateMutability": "payable",
      "type": "function"
    }
  ],
  "bytecode": "0x608060405234801561001057600080fd5b50610293806100206000396000f3fe60806040526004361061001e5760003560e01c80639efaa9ee14610023575b600080fd5b61003d60048036038101906100389190610146565b61003f565b005b60003411610082576040517f08c379a0000000000000000000000000000000000000000000000000000000008152600401610079906101be565b60405180910390fd5b8073ffffffffffffffffffffffffffffffffffffffff166108fc349081150290604051600060405180830381858888f193505050501580156100c8573d6000803e3d6000fd5b508073ffffffffffffffffffffffffffffffffffffffff163373ffffffffffffffffffffffffffffffffffffffff167fc5835c42104f59a9d40c52f62332be8a5680438e166679cee2d78a14e66831b83460405161012691906101de565b60405180910390a350565b60008135905061014081610246565b92915050565b60006020828403121561015857600080fd5b600061016684828501610131565b91505092915050565b600061017c601e836101f9565b91507f596f75206d7573742073656e6420736f6d65205365706f6c69612045544800006000830152602082019050919050565b6101b88161023c565b82525050565b600060208201905081810360008301526101d78161016f565b9050919050565b60006020820190506101f360008301846101af565b92915050565b600082825260208201905092915050565b60006102158261021c565b9050919050565b600073ffffffffffffffffffffffffffffffffffffffff82169050919050565b6000819050919050565b61024f8161020a565b811461025a57600080fd5b5056fea26469706673582212207fdfdc4133baa893484000a805e6008f101076880d9a8b96fc5a12fed0a4a5e464736f6c63430008000033",
  "linkReferences": {},
  "deployedLinkReferences": {}
}